:1000000071C000008FC000008DC0000005C100005D
:1000100067C10000C9C100002BC2000083C00000FE
:1000200081C000007FC000007DC000007BC00000D8
:1000300079C0000077C0000075C0000073C00000E8
:1000400071C000006FC000006DC000006BC00000F8
:1000500069C0000067C0000065C0000063C0000008
:1000600061C000005FC000005DC000005BC0000018
:1000700059C0000057C0000055C0000053C0000028
:1000800051C000004FC000004DC000004BC0000038
:1000900049C0000047C0000045C0000056C0000035
:1000A00041C000003FC00000CFC600003BC00000C0
:1000B00039C0000037C0000035C0000033C0000068
:1000C00031C000002FC000002DC000002BC0000078
:1000D00029C0000027C0000025C0000023C0000088
:1000E00021C0000011241FBECFEFD1E2DEBFCDBF83
:1000F00000E00CBF12E0A0E0B2E0EEE5F7E100E0C6
:100100000BBF02C007900D92A630B107D9F722E0CD
:10011000A6E0B2E001C01D92A83AB207E1F7C2D64C
:100120000C94AD0B6DCF90930902809308027093ED
:100130000702609306020895F894880F8093BA002E
:1001400085EC8093BC00789408951F920F920FB6AF
:100150000F9211240BB60F922F933F934F935F93FF
:100160006F937F938F939F93AF93BF93EF93FF937F
:100170008091B900887F803849F018F4882319F1FC
:1001800028C0883A71F0883BA9F023C08091BB0059
:10019000E0910802F0910902199585EC8093BC006A
:1001A0001BC0E0910602F0910702199585EC80933F
:1001B000BC0012C0E0910602F0910702199585EC8F
:1001C0008093BC0009C0ECEBF0E0108285EC8083EA
:1001D00003C085EC8093BC00FF91EF91BF91AF917C
:1001E0009F918F917F916F915F914F913F912F914F
:1001F0000F900BBE0F900FBE0F901F90189590E0C0
:1002000090930B0280930A02089580910A029091C4
:100210000B028093BB0008951F920F920FB60F92AE
:1002200011240BB60F922F933F934F935F936F93CD
:100230007F938F939F93AF93BF93EF93FF9380919F
:1002400024019091250190931B0280931A02A091A2
:100250001A02B0911B028091180290911902A81BFA
:10026000B90B20E432E44FE050E00E94B20A24E2ED
:1002700034EF40E050E00E948A0A30938F022093CE
:100280008E02A0918E02B0918F022EED33E00E947B
:10029000AC0A9B01AC0160E07AEC8AE99BE30E9426
:1002A0008A0A30939D0220939C0280911A029091B9
:1002B0001B029093190280931802FF91EF91BF9156
:1002C000AF919F918F917F916F915F914F913F91EE
:1002D0002F910F900BBE0F900FBE0F901F9018958F
:1002E0001F920F920FB60F9211240BB60F922F93FD
:1002F0003F934F935F936F937F938F939F93AF93AE
:10030000BF93EF93FF9380912401909125019093E7
:10031000170280931602A0911602B09117028091E5
:10032000140290911502A81BB90B20E432E44FE0AF
:1003300050E00E94B20A24E234EF40E050E00E9414
:100340008A0A3093A5022093A402A091A402B0913E
:10035000A5022CE632E00E94AC0A9B01AC0160E0F1
:100360007AEC8AE99BE30E948A0A309389022093FF
:100370008802809116029091170290931502809343
:100380001402FF91EF91BF91AF919F918F917F9157
:100390006F915F914F913F912F910F900BBE0F90F6
:1003A0000FBE0F901F9018951F920F920FB60F92CD
:1003B00011240BB60F922F933F934F935F936F933C
:1003C0007F938F939F93AF93BF93EF93FF9380910E
:1003D0002401909125019093130280931202A09121
:1003E0001202B09113028091100290911102A81B89
:1003F000B90B20E432E44FE050E00E94B20A24E25C
:1004000034EF40E050E00E948A0A30938502209346
:100410008402A0918402B09185022EED33E00E9407
:10042000AC0A9B01AC0160E07AEC8AE99BE30E9494
:100430008A0A3093A3022093A20280911202909123
:1004400013029093110280931002FF91EF91BF91DC
:10045000AF919F918F917F916F915F914F913F915C
:100460002F910F900BBE0F900FBE0F901F901895FD
:100470001F920F920FB60F9211240BB60F922F936B
:100480003F934F935F936F937F938F939F93AF931C
:10049000BF93EF93FF938091240190912501909356
:1004A0000F0280930E02A0910E02B0910F02809174
:1004B0000C0290910D02A81BB90B20E432E44FE02E
:1004C00050E00E94B20A24E234EF40E050E00E9483
:1004D0008A0A30939F0220939E02A0919E02B091BF
:1004E0009F022EED33E00E94AC0A9B01AC0160E05C
:1004F0007AEC8AE99BE30E948A0A3093990220935E
:10050000980280910E0290910F0290930D028093B9
:100510000C02FF91EF91BF91AF919F918F917F91CD
:100520006F915F914F913F912F910F900BBE0F9064
:100530000FBE0F901F9018958BEA8093800080EE7D
:1005400084B9089583E88093900088E08DB9089578
:100550008CE08093810008958CE080939100089551
:100560009093890080938800089590938B008093E6
:100570008A00089590938D0080938C000895909345
:10058000990080939800089560919C0270919D025B
:10059000072E000C880B990BA6D69B01AC0160E0DE
:1005A00070E88BEB94E403D6609378027093790241
:1005B00080937A0290937B02609178027091790225
:1005C00080917A0290917B0223EC35EF48E850E469
:1005D0003ED7609374027093750280937602909375
:1005E0007702609178027091790280917A029091FD
:1005F0007B0227EE3BEF49EE5EE329D720916802AC
:100600003091690240916A0250916B02D1D560939A
:1006100070027093710280937202909373026091E2
:1006200078027091790280917A0290917B022091F8
:100630009402309195024091960250919702B7D55D
:1006400020E030E0A90103D760936C0270936D0243
:1006500080936E0290936F026091700270917102AC
:10066000809172029091730220E030EC4FE754E4E5
:10067000EAD6181664F480E090ECAFE7B4E4809317
:10068000700290937102A0937202B0937302609112
:10069000700270917102809172029091730220E059
:1006A00030E0A901E9D5882344F410927002109239
:1006B00071021092720210927302809170029091F6
:1006C0007102A0917202B0917302809368029093BC
:1006D0006902A0936A02B0936B02809178029091B4
:1006E0007902A0917A02B0917B0280939402909358
:1006F0009502A0939602B093970260917402709154
:10070000750280917602909177022091700230916B
:10071000710240917202509173024AD520916C028D
:1007200030916D0240916E0250916F0241D56093FD
:1007300064027093650280936602909367026091F1
:10074000640270916502809166029091670220E0D8
:1007500030E0A90191D5882344F4109264021092EC
:1007600065021092660210926702609164027091B5
:100770006502809166029091670220E030EC4FE7BD
:1007800054E461D6181664F480E090ECAFE7B4E46A
:100790008093640290936502A0936602B09367020F
:1007A0006091640270916502809166029091670287
:1007B00067D5CB01D5CE08956091880270918902EA
:1007C000072E000C880B990B8ED59B01AC0160E0C5
:1007D00070E88BEB94E4EBD4609360027093610259
:1007E0008093620290936302609160027091610253
:1007F000809162029091630223EC35EF48E850E467
:1008000026D660935C0270935D0280935E029093A3
:100810005F0260916002709161028091620290912A
:10082000630227EE3BEF49EE5EE311D620915002C2
:10083000309151024091520250915302B9D46093C9
:1008400058027093590280935A0290935B02609110
:100850006002709161028091620290916302209126
:1008600080023091810240918202509183029FD494
:1008700020E030E0A901EBD560935402709355025B
:1008800080935602909357026091580270915902DA
:1008900080915A0290915B0220E030EC4FE754E4E3
:1008A000D2D5181664F480E090ECAFE7B4E48093FE
:1008B000580290935902A0935A02B0935B02609140
:1008C00058027091590280915A0290915B0220E087
:1008D00030E0A901D1D4882344F410925802109238
:1008E000590210925A0210925B0280915802909124
:1008F0005902A0915A02B0915B02809350029093EA
:100900005102A0935202B0935302809160029091E1
:100910006102A0916202B091630280938002909381
:100920008102A0938202B093830260915C02709175
:100930005D0280915E0290915F0220915802309199
:10094000590240915A0250915B0232D420915402D4
:1009500030915502409156025091570229D460932C
:100960004C0270934D0280934E0290934F0260911F
:100970004C0270914D0280914E0290914F0220E006
:1009800030E0A90179D4882344F410924C021092EB
:100990004D0210924E0210924F0260914C027091E3
:1009A0004D0280914E0290914F0220E030EC4FE7D3
:1009B00054E449D5181664F480E090ECAFE7B4E451
:1009C00080934C0290934D02A0934E02B0934F023D
:1009D00060914C0270914D0280914E0290914F02B5
:1009E0004FD4CB01C2CD08956091A2027091A302B1
:1009F000072E000C880B990B76D49B01AC0160E0AC
:100A000070E88BEB94E4D3D360934802709349026F
:100A100080934A0290934B02609148027091490280
:100A200080914A0290914B0223EC35EF48E850E464
:100A30000ED56093440270934502809346029093D2
:100A40004702609148027091490280914A02909158
:100A50004B0227EE3BEF49EE5EE3F9D420913802DA
:100A60003091390240913A0250913B02A1D36093F8
:100A7000400270934102809342029093430260913E
:100A800048027091490280914A0290914B02209154
:100A9000900230919102409192025091930287D33B
:100AA00020E030E0A901D3D460933C0270933D0272
:100AB00080933E0290933F02609140027091410208
:100AC000809142029091430220E030EC4FE754E4E1
:100AD000BAD4181664F480E090ECAFE7B4E48093E5
:100AE000400290934102A0934202B093430260916E
:100AF000400270914102809142029091430220E0B5
:100B000030E0A901B9D3882344F410924002109236
:100B10004102109242021092430280914002909151
:100B20004102A0914202B091430280933802909317
:100B30003902A0933A02B0933B028091480290910F
:100B40004902A0914A02B0914B0280939002909387
:100B50009102A0939202B09393026091440270912B
:100B600045028091460290914702209140023091C7
:100B7000410240914202509143021AD320913C021B
:100B800030913D0240913E0250913F0211D360935B
:100B9000340270933502809336029093370260914D
:100BA000340270913502809136029091370220E034
:100BB00030E0A90161D3882344F4109234021092EA
:100BC0003502109236021092370260913402709111
:100BD0003502809136029091370220E030EC4FE7E9
:100BE00054E431D4181664F480E090ECAFE7B4E438
:100BF0008093340290933502A0933602B09337026B
:100C000060913402709135028091360290913702E2
:100C100037D3CB01AFCC08956091980270919902BF
:100C2000072E000C880B990B5ED39B01AC0160E092
:100C300070E88BEB94E4BBD2609330027093310286
:100C400080933202909333026091300270913102AE
:100C5000809132029091330223EC35EF48E850E462
:100C6000F6D360932C0270932D0280932E02909302
:100C70002F02609130027091310280913202909186
:100C8000330227EE3BEF49EE5EE3E1D320912002F1
:100C900030912102409122025091230289D2609327
:100CA00028027093290280932A0290932B0260916C
:100CB0003002709131028091320290913302209182
:100CC0008A0230918B0240918C0250918D026FD23A
:100CD00020E030E0A901BBD3609324027093250289
:100CE0008093260290932702609128027091290236
:100CF00080912A0290912B0220E030EC4FE754E4DF
:100D0000A2D3181664F480E090ECAFE7B4E48093CB
:100D1000280290932902A0932A02B0932B0260919B
:100D200028027091290280912A0290912B0220E0E2
:100D300030E0A901A1D2882344F410922802109235
:100D4000290210922A0210922B028091280290917F
:100D50002902A0912A02B0912B0280932002909345
:100D60002102A0932202B09323028091300290913D
:100D70003102A0913202B091330280938A029093A3
:100D80008B02A0938C02B0938D0260912C02709123
:100D90002D0280912E0290912F02209128023091F5
:100DA000290240912A0250912B0202D22091240262
:100DB000309125024091260250912702F9D160938B
:100DC0001C0270931D0280931E0290931F0260917B
:100DD0001C0270911D0280911E0290911F0220E062
:100DE00030E0A90149D2882344F410921C021092E9
:100DF0001D0210921E0210921F0260911C0270913F
:100E00001D0280911E0290911F0220E030EC4FE7FE
:100E100054E419D3181664F480E090ECAFE7B4E41E
:100E200080931C0290931D02A0931E02B0931F0298
:100E300060911C0270911D0280911E0290911F0210
:100E40001FD2CB019CCB08951F920F920FB60F9229
:100E500011240BB60F922F933F934F935F936F9391
:100E60007F938F939F93AF93BF93EF93FF938CDB0D
:100E7000A3DCBADDD1DE1092A5001092A400FF9190
:100E8000EF91BF91AF919F918F917F916F915F9102
:100E90004F913F912F910F900BBE0F900FBE0F906F
:100EA0001F90189558D080EF809369008FE0809351
:100EB0006A008CE38DBB78948FEF81B989E982B9A0
:100EC0001092200184E08093210183E28093A000AE
:100ED0008CE08093A10082E0809372008EE390E02A
:100EE0009093A9008093A80080E18093010124DB06
:100EF00029DB2EDB31DB88EE93E032DB88EE93E0FA
:100F000034DB88EE93E036DB88EE93E038DB80E478
:100F100080937C0010927B0086E880937A0080E1C9
:100F20000BD965E071E08FEF90E0FDD881E080BBE8
:100F300040910A0250910B02952F990F990B242F83
:100F4000352F492F592F692F792F892F43D080E0D2
:100F500092E023D0EDCF80917C0290917D02A09110
:100F60007E02B0917F02892F9A2FAB2FBB27A7FD5E
:100F7000BA958093C50080917C028093C40088E973
:100F80008093C10086E08093C20008959091C000D4
:100F900095FFFCCF8093C60008950F931F93CF93C6
:100FA000DF938C01C0E0D0E006C0F801EC0FFD1F1C
:100FB0008081ECDF2196F80101900020E9F731975C
:100FC000E01BF10BCE17DF0780F3DF91CF911F916C
:100FD0000F9108952F923F924F925F926F927F925E
:100FE0008F929F92AF92BF92CF92DF92EF92FF9239
:100FF0000F931F93CF93DF93CDB7DEB7C354D109BF
:101000000FB6F894DEBF0FBECDBF22962FAF22974A
:1010100023963FAF239724964FAF2497852E762EA5
:10102000672E382E292EA0E073D304F582E092E0DB
:10103000B4DF22962FAD229723963FAD23972496B7
:101040004FAD2497582D672D762D832D922D19D3D2
:1010500022962FAF229723963FAF239724964FAF28
:101060002497852E762E672E382E292E22962FAD88
:10107000229723963FAD239724964FAD2497582D62
:10108000672D762D832D922DA0E042D361F480E36D
:101090007DDF73C0E1E0F0E0EC0FFD1FE80FF11D14
:1010A00010828F5F01C080E08032A0F30F2EFFE13D
:1010B0009F2EF02D42C0492C512C0F2EFAE0AF2E5E
:1010C000F02DB12CC12CD12CE12CF12C00E010E042
:1010D00022962FAD229723963FAD239724964FADAE
:1010E0002497582D672D762D832D922D41D2E1E046
:1010F000F0E0EC0FFD1FE40DF51D205D208322962E
:101100002FAD229723963FAD239724964FAD24977A
:10111000582D672D762D832D922D2CD222962FAF10
:10112000229723963FAF239724964FAF2497852E7F
:10113000762E672E382E292E9A9422962FAD22973E
:1011400023963FAD239724964FAD2497582D672DB6
:10115000762D832D922DA0E0DBD209F0ACCF10E0EC
:101160000AC0E1E0F0E0EC0FFD1FE10FF11D80810E
:1011700081110CDF1F5F1032A0F3CD5BDF4F0FB684
:10118000F894DEBF0FBECDBFDF91CF911F910F91BD
:10119000FF90EF90DF90CF90BF90AF909F908F9097
:1011A0007F906F905F904F903F902F900895505890
:1011B000BB27AA270ED00DC1FED030F003D120F0FE
:1011C00031F49F3F11F41EF4F3C00EF4E095E7FBF9
:1011D000E9C0E92F0FD180F3BA17620773078407BC
:1011E000950718F071F49EF527C10EF4E0950B2ECB
:1011F000BA2FA02D0B01B90190010C01CA01A00169
:101200001124FF27591B99F0593F50F4503E68F1C3
:101210001A16F040A22F232F342F4427585FF3CF04
:10122000469537952795A795F0405395C9F77EF4D5
:101230001F16BA0B620B730B840BBAF09150A1F01E
:10124000FF0FBB1F661F771F881FC2F70EC0BA0FA4
:10125000621F731F841F48F4879577956795B7952C
:10126000F7959E3F08F0B3CF9395880F08F0992724
:10127000EE0F97958795089571D008F481E0089551
:1012800004D06894B111D9C00895BCD088F09F579C
:1012900090F0B92F9927B751A0F0D1F0660F771FC2
:1012A000881F991F1AF0BA95C9F712C0B13081F0A2
:1012B000C3D0B1E00895C0C0672F782F8827B85FEA
:1012C00039F0B93FCCF3869577956795B395D9F703
:1012D0003EF490958095709561957F4F8F4F9F4F0D
:1012E0000895E89409C097FB3EF490958095709519
:1012F00061957F4F8F4F9F4F9923A9F0F92F96E962
:10130000BB279395F695879577956795B795F111D6
:10131000F8CFFAF4BB0F11F460FF1BC06F5F7F4F73
:101320008F4F9F4F16C0882311F096E911C0772385
:1013300021F09EE8872F762F05C0662371F096E88E
:10134000862F70E060E02AF09A95660F771F881F5D
:10135000DAF7880F9695879597F90895990F000801
:10136000550FAA0BE0E8FEEF16161706E807F90777
:10137000C0F012161306E407F50798F0621B730B12
:10138000840B950B39F40A2661F0232B242B252B93
:1013900021F408950A2609F4A140A6958FEF811D36
:1013A000811D089597F99F6780E870E060E00895D7
:1013B0009FEF80EC089500240A941616170618066D
:1013C0000906089500240A94121613061406050649
:1013D0000895092E0394000C11F4882352F0BB0FDA
:1013E00040F4BF2B11F460FF04C06F5F7F4F8F4F3D
:1013F0009F4F089557FD9058440F551F59F05F3F78
:1014000071F04795880F97FB991F61F09F3F79F026
:1014100087950895121613061406551FF2CF4695A8
:10142000F1DF08C0161617061806991FF1CF86952A
:101430007105610508940895E894BB27662777270E
:10144000CB0197F908958ADF08F48FEF08950BD048
:10145000C0CFB1DF28F0B6DF18F0952309F0A2CF96
:10146000A7CF1124EACFC6DFA0F3959FD1F3950F44
:1014700050E0551F629FF001729FBB27F00DB11D18
:10148000639FAA27F00DB11DAA1F649F6627B00DA8
:10149000A11D661F829F2227B00DA11D621F739F91
:1014A000B00DA11D621F839FA00D611D221F749F9F
:1014B0003327A00D611D231F849F600D211D822FE6
:1014C000762F6A2F11249F5750408AF0E1F088232D
:1014D0004AF0EE0FFF1FBB1F661F771F881F91503A
:1014E0005040A9F79E3F510570F05CCFA6CF5F3FFB
:1014F000ECF3983EDCF3869577956795B795F7956D
:10150000E7959F5FC1F7FE2B880F911D96958795F4
:1015100097F90895A1E21A2EAA1BBB1BFD010DC06D
:10152000AA1FBB1FEE1FFF1FA217B307E407F50793
:1015300020F0A21BB30BE40BF50B661F771F881F6F
:10154000991F1A9469F760957095809590959B0105
:10155000AC01BD01CF010895E7D0B7FF0895821B0C
:10156000930B0895B7FFEFC0EED0821B930B089545
:10157000689401C0E894F92FF12B0AF027C0A0E08D
:10158000B0E0E4ECFAE093C0092E05941AF479D0A7
:10159000112392F4F0E80F26FFEFE094F094009509
:1015A0001095B094C094D094A194BF0ACF0ADF0ADA
:1015B000EF0AFF0A0F0B1F0B13D007FC62D0CDB749
:1015C000DEB7ECE090C0689401C0E8948F929F92DF
:1015D000CF93DF9305D0DF91CF919F908F900895A7
:1015E00088249924F401E401B0E49F93AA279A1572
:1015F0008B049C04ED05FE05CF05D007A10798F4E8
:10160000AD2FDC2FCF2FFE2FE92D982C892E982F70
:10161000872F762F652F542F432F322F2227B85034
:1016200031F7BF9127C01B2EBF91BB27220F331F5D
:10163000441F551F661F771F881F991F881C991C00
:10164000EE1FFF1FCC1FDD1FAA1FBB1F8A149B04A8
:10165000EC05FD05CE05DF05A007B10748F08A18A7
:101660009B08EC09FD09CE09DF09A00BB10B216035
:101670001A94E1F62EF49401AF01BE01CD01000CE5
:10168000089560957095809590953095409550950A
:1016900021953F4F4F4F5F4F6F4F7F4F8F4F9F4F62
:1016A00008952F923F924F925F926F927F928F9206
:1016B0009F92AF92BF92CF92DF92EF92FF920F93E1
:1016C0001F93CF93DF93CDB7DEB7CA1BDB0B0FB6EB
:1016D000F894DEBF0FBECDBF19942A883988488898
:1016E0005F846E847D848C849B84AA84B984C8843E
:1016F000DF80EE80FD800C811B81AA81B981CE0F35
:10170000D11D0FB6F894DEBF0FBECDBFED01089519
:101710000024A7FD00942A173005400550056005F8
:101720007005800590050895A29FB001B39FC00188
:10173000A39F700D811D1124911DB29F700D811DFD
:101740001124911D0895F0DFA59F900DB49F900D79
:0E175000A49F800D911D11240895F894FFCFE1
:06175E000A002D002E0020
:00000001FF
