:1000000071C000008FC000008DC0000002C1000060
:1000100064C10000C6C1000028C2000083C0000007
:1000200081C000007FC000007DC000007BC00000D8
:1000300079C0000077C0000075C0000073C00000E8
:1000400071C000006FC000006DC000006BC00000F8
:1000500069C0000067C0000065C0000063C0000008
:1000600061C000005FC000005DC000005BC0000018
:1000700059C0000057C0000055C0000053C0000028
:1000800051C000004FC000004DC000004BC0000038
:1000900049C0000047C0000045C0000080C000000B
:1000A00041C000003FC00000CCC600003BC00000C3
:1000B00039C0000037C0000035C0000033C0000068
:1000C00031C000002FC000002DC000002BC0000078
:1000D00029C0000027C0000025C0000023C0000088
:1000E00021C0000011241FBECFEFD1E2DEBFCDBF83
:1000F00000E00CBF12E0A0E0B2E0E2E4F7E100E0D3
:100100000BBF02C007900D92A630B107D9F722E0CD
:10011000A6E0B2E001C01D92A63AB207E1F7BFD651
:100120000C949F0B6DCF88E090E090937B028093BE
:100130007A0280917A0290917B02089721F4809153
:100140007C0290E0089580E090E00895789408950E
:1001500085EC8093BC0080E28093BA0081E08AB98C
:10016000089585EC8093BC000895FBCF089585E841
:100170008093BC0008952091BB00FC01E458FD4F22
:100180002083019612F4EDCF0895F1CF08952091C8
:10019000BB0084589D4FFC012083E9CF08951F9236
:1001A0000F920FB60F9211240BB60F922F933F931D
:1001B0004F935F936F937F938F939F93AF93BF936F
:1001C000EF93FF938091B900803849F0883859F057
:1001D000803661F480E090E0C8DFA5DF07C080E0F2
:1001E00090E0C9DF03C080E090E0D1DFFF91EF91A4
:1001F000BF91AF919F918F917F916F915F914F913F
:100200003F912F910F900BBE0F900FBE0F901F903C
:1002100018951F920F920FB60F9211240BB60F92E2
:100220002F933F934F935F936F937F938F939F93FE
:10023000AF93BF93EF93FF93809124019091250199
:100240009093150280931402A0911402B0911502AC
:100250008091120290911302A81BB90B20E432E4A2
:100260004FE050E00E94A40A24E234EF40E050E066
:100270000E947C0A30938D0220938C02A0918C0204
:10028000B0918D0228EE33E00E949E0A9B01AC01E2
:1002900060E07AEC8AE99BE30E947C0A30939B023F
:1002A00020939A0280911402909115029093130268
:1002B00080931202FF91EF91BF91AF919F918F9127
:1002C0007F916F915F914F913F912F910F900BBE56
:1002D0000F900FBE0F901F9018951F920F920FB6A0
:1002E0000F9211240BB60F922F933F934F935F936E
:1002F0006F937F938F939F93AF93BF93EF93FF93EE
:100300008091240190912501909311028093100215
:10031000A0911002B091110280910E0290910F02F3
:10032000A81BB90B20E432E44FE050E00E94A40A7D
:1003300024E234EF40E050E00E947C0A3093A302B4
:100340002093A202A091A202B091A3022CE632E077
:100350000E949E0A9B01AC0160E07AEC8AE99BE373
:100360000E947C0A309387022093860280911002BB
:100370009091110290930F0280930E02FF91EF91E2
:10038000BF91AF919F918F917F916F915F914F91AD
:100390003F912F910F900BBE0F900FBE0F901F90AB
:1003A00018951F920F920FB60F9211240BB60F9251
:1003B0002F933F934F935F936F937F938F939F936D
:1003C000AF93BF93EF93FF93809124019091250108
:1003D00090930D0280930C02A0910C02B0910D023B
:1003E00080910A0290910B02A81BB90B20E432E421
:1003F0004FE050E00E94A40A24E234EF40E050E0D5
:100400000E947C0A3093830220938202A091820290
:10041000B09183022EED33E00E949E0A9B01AC0155
:1004200060E07AEC8AE99BE30E947C0A3093A102A7
:100430002093A00280910C0290910D0290930B02E8
:1004400080930A02FF91EF91BF91AF919F918F919D
:100450007F916F915F914F913F912F910F900BBEC4
:100460000F900FBE0F901F9018951F920F920FB60E
:100470000F9211240BB60F922F933F934F935F93DC
:100480006F937F938F939F93AF93BF93EF93FF935C
:100490008091240190912501909309028093080294
:1004A000A0910802B0910902809106029091070282
:1004B000A81BB90B20E432E44FE050E00E94A40AEC
:1004C00024E234EF40E050E00E947C0A30939D0229
:1004D00020939C02A0919C02B0919D022EED33E0EE
:1004E0000E949E0A9B01AC0160E07AEC8AE99BE3E2
:1004F0000E947C0A30939702209396028091080212
:10050000909109029093070280930602FF91EF9168
:10051000BF91AF919F918F917F916F915F914F911B
:100520003F912F910F900BBE0F900FBE0F901F9019
:1005300018958BEA8093800080EF84B9089583E852
:100540008093900088E08DB908958CE080938100BD
:1005500008958CE080939100089590938900809392
:100560008800089590938B0080938A00089590935B
:100570008D0080938C00089590939900809398004B
:10058000089560919A0270919B02072E000C880BCF
:10059000990B9BD69B01AC0160E070E088EC92E483
:1005A000F8D56093720270937302809374029093F3
:1005B0007502609172027091730280917402909141
:1005C000750223EC35EF48E850E433D760936E02B0
:1005D00070936F0280937002909371026091720227
:1005E00070917302809174029091750223EE35EA46
:1005F0004BE15EE31ED7209162023091630240918D
:10060000640250916502C6D560936A0270936B02D2
:1006100080936C0290936D026091720270917302EC
:100620008091740290917502209192023091930210
:100630004091940250919502ACD520E030E0A901A0
:10064000F8D6609366027093670280936802909375
:10065000690260916A0270916B0280916C029091C4
:100660006D0220E030EC4FE754E4DFD6181664F456
:1006700080E090ECAFE7B4E480936A0290936B0261
:10068000A0936C02B0936D0260916A0270916B024C
:1006900080916C0290916D0220E030E0A901DED5DE
:1006A000882344F410926A0210926B0210926C023A
:1006B00010926D0280916A0290916B02A0916C027F
:1006C000B0916D028093620290936302A0936402E2
:1006D000B09365028091720290917302A0917402AE
:1006E000B09175028093920290939302A09394022A
:1006F000B093950260916E0270916F0280917002CA
:100700009091710220916A0230916B0240916C02CB
:1007100050916D023FD52091660230916702409161
:1007200068025091690236D560935E0270935F0251
:10073000809360029093610260915E0270915F020B
:10074000809160029091610220E030E0A90186D59D
:10075000882344F410925E0210925F0210926002AD
:100760001092610260915E0270915F02809160025E
:100770009091610220E030EC4FE754E456D6181611
:1007800064F480E090ECAFE7B4E480935E02909371
:100790005F02A0936002B093610260915E0270916B
:1007A0005F0280916002909161025CD5CB01D5CE51
:1007B00008956091860270918702072E000C880BC5
:1007C000990B83D59B01AC0160E070E088EC92E46A
:1007D000E0D460935A0270935B0280935C02909322
:1007E0005D0260915A0270915B0280915C0290916F
:1007F0005D0223EC35EF48E850E41BD660935602C7
:1008000070935702809358029093590260915A0254
:1008100070915B0280915C0290915D0223EE35EA5B
:100820004BE15EE306D620914A0230914B024091A3
:100830004C0250914D02AED4609352027093530219
:10084000809354029093550260915A0270915B021A
:1008500080915C0290915D0220917E0230917F0236
:10086000409180025091810294D420E030E0A901AF
:10087000E0D560934E0270934F02809350029093A4
:1008800051026091520270915302809154029091F2
:10089000550220E030EC4FE754E4C7D5181664F455
:1008A00080E090ECAFE7B4E480935202909353025F
:1008B000A0935402B093550260915202709153027A
:1008C000809154029091550220E030E0A901C6D4F5
:1008D000882344F410925202109253021092540250
:1008E000109255028091520290915302A0915402AD
:1008F000B091550280934A0290934B02A0934C0210
:10090000B0934D0280915A0290915B02A0915C02DB
:10091000B0915D0280937E0290937F02A09380024B
:10092000B0938102609156027091570280915802F3
:1009300090915902209152023091530240915402F9
:100940005091550227D420914E0230914F02409190
:100950005002509151021ED4609346027093470298
:100960008093480290934902609146027091470239
:10097000809148029091490220E030E0A9016ED4B4
:10098000882344F4109246021092470210924802C3
:10099000109249026091460270914702809148028C
:1009A0009091490220E030EC4FE754E43ED5181610
:1009B00064F480E090ECAFE7B4E480934602909357
:1009C0004702A0934802B093490260914602709199
:1009D0004702809148029091490244D4CB01C2CD94
:1009E00008956091A0027091A102072E000C880B5F
:1009F000990B6BD49B01AC0160E070E088EC92E451
:100A0000C8D3609342027093430280934402909350
:100A1000450260914202709143028091440290919C
:100A2000450223EC35EF48E850E403D560933E02DD
:100A300070933F0280934002909341026091420282
:100A400070914302809144029091450223EE35EA71
:100A50004BE15EE3EED420913202309133024091BB
:100A600034025091350296D360933A0270933B0260
:100A700080933C0290933D02609142027091430248
:100A8000809144029091450220918E0230918F0214
:100A900040919002509191027CD320E030E0A90176
:100AA000C8D46093360270933702809338029093D3
:100AB000390260913A0270913B0280913C02909120
:100AC0003D0220E030EC4FE754E4AFD4181664F454
:100AD00080E090ECAFE7B4E480933A0290933B025D
:100AE000A0933C02B0933D0260913A0270913B02A8
:100AF00080913C0290913D0220E030E0A901AED30C
:100B0000882344F410923A0210923B0210923C0265
:100B100010923D0280913A0290913B02A0913C02DA
:100B2000B0913D028093320290933302A09334023D
:100B3000B09335028091420290914302A091440209
:100B4000B091450280938E0290938F02A093900201
:100B5000B093910260913E0270913F0280914002F9
:100B60009091410220913A0230913B0240913C0227
:100B700050913D020FD320913602309137024091BF
:100B800038025091390206D360932E0270932F02DF
:100B9000809330029093310260912E0270912F0267
:100BA000809130029091310220E030E0A90156D3CB
:100BB000882344F410922E0210922F0210923002D9
:100BC0001092310260912E0270912F0280913002BA
:100BD0009091310220E030EC4FE754E426D418160F
:100BE00064F480E090ECAFE7B4E480932E0290933D
:100BF0002F02A0933002B093310260912E027091C7
:100C00002F0280913002909131022CD3CB01AFCCD6
:100C100008956091960270919702072E000C880B40
:100C2000990B53D39B01AC0160E070E088EC92E437
:100C3000B0D260932A0270932B0280932C0290937F
:100C40002D0260912A0270912B0280912C029091CA
:100C50002D0223EC35EF48E850E4EBD360932602F5
:100C600070932702809328029093290260912A02B0
:100C700070912B0280912C0290912D0223EE35EA87
:100C80004BE15EE3D6D320911A0230911B024091D2
:100C90001C0250911D027ED26093220270932302A7
:100CA000809324029093250260912A0270912B0276
:100CB00080912C0290912D0220918802309189021E
:100CC00040918A0250918B0264D220E030E0A90169
:100CD000B0D360931E0270931F0280932002909302
:100CE000210260912202709123028091240290914E
:100CF000250220E030EC4FE754E497D3181664F453
:100D000080E090ECAFE7B4E480932202909323025A
:100D1000A0932402B09325026091220270912302D5
:100D2000809124029091250220E030E0A90196D222
:100D3000882344F41092220210922302109224027B
:100D4000109225028091220290912302A091240208
:100D5000B091250280931A0290931B02A0931C026B
:100D6000B0931D0280912A0290912B02A0912C0237
:100D7000B0912D028093880290938902A0938A02F9
:100D8000B0938B0260912602709127028091280215
:100D90009091290220912202309123024091240255
:100DA00050912502F7D120911E0230911F024091EF
:100DB000200250912102EED1609316027093170227
:100DC0008093180290931902609116027091170295
:100DD000809118029091190220E030E0A9013ED2E2
:100DE000882344F4109216021092170210921802EF
:100DF00010921902609116027091170280911802E8
:100E00009091190220E030EC4FE754E40ED318160D
:100E100064F480E090ECAFE7B4E480931602909322
:100E20001702A0931802B0931902609116027091F4
:100E30001702809118029091190214D2CB019CCB19
:100E400008951F920F920FB60F9211240BB60F92B6
:100E50002F933F934F935F936F937F938F939F93C2
:100E6000AF93BF93EF93FF938CDBA3DCBADDD1DEAE
:100E70001092A5001092A400FF91EF91BF91AF9145
:100E80009F918F917F916F915F914F913F912F91A2
:100E90000F900BBE0F900FBE0F901F9018954DD066
:100EA00080EF809369008FE080936A008CE38DBBB4
:100EB00078948FEF81B98AEA82B91092200184E098
:100EC0008093210183E28093A0008CE08093A100B5
:100ED00082E0809372008EE390E09093A90080936B
:100EE000A80080E18093010124DB29DB2EDB31DBCC
:100EF00084E690E032DB84E690E034DB84E690E048
:100F000036DB84E690E038DB80E480937C0010924E
:100F10007B0086E880937A001BD918D904D9392F31
:100F2000282F990F990B492F592F692F792F892F26
:100F300043D080E092E023D0F1CF8091760290916F
:100F40007702A0917802B0917902892F9A2FAB2F66
:100F5000BB27A7FDBA958093C50080917602809348
:100F6000C40088E98093C10086E08093C2000895A0
:100F70009091C00095FFFCCF8093C60008950F9319
:100F80001F93CF93DF938C01C0E0D0E006C0F8013F
:100F9000EC0FFD1F8081ECDF2196F801019000200D
:100FA000E9F73197E01BF10BCE17DF0780F3DF91F4
:100FB000CF911F910F9108952F923F924F925F9280
:100FC0006F927F928F929F92AF92BF92CF92DF9259
:100FD000EF92FF920F931F93CF93DF93CDB7DEB7BE
:100FE000C354D1090FB6F894DEBF0FBECDBF229611
:100FF0002FAF229723963FAF239724964FAF249786
:10100000852E762E672E382E292EA0E073D304F578
:1010100082E092E0B4DF22962FAD229723963FAD77
:10102000239724964FAD2497582D672D762D832D29
:10103000922D19D322962FAF229723963FAF239755
:1010400024964FAF2497852E762E672E382E292E84
:1010500022962FAD229723963FAD239724964FAD2E
:101060002497582D672D762D832D922DA0E042D305
:1010700061F480E37DDF73C0E1E0F0E0EC0FFD1F81
:10108000E80FF11D10828F5F01C080E08032A0F375
:101090000F2EFFE19F2EF02D42C0492C512C0F2E18
:1010A000FAE0AF2EF02DB12CC12CD12CE12CF12C7B
:1010B00000E010E022962FAD229723963FAD2397B4
:1010C00024964FAD2497582D672D762D832D922D84
:1010D00041D2E1E0F0E0EC0FFD1FE40DF51D205DD5
:1010E000208322962FAD229723963FAD23972496F7
:1010F0004FAD2497582D672D762D832D922D2CD210
:1011000022962FAF229723963FAF239724964FAF77
:101110002497852E762E672E382E292E9A94229685
:101120002FAD229723963FAD239724964FAD24975A
:10113000582D672D762D832D922DA0E0DBD209F05E
:10114000ACCF10E00AC0E1E0F0E0EC0FFD1FE10FD2
:10115000F11D808181110CDF1F5F1032A0F3CD5B88
:10116000DF4F0FB6F894DEBF0FBECDBFDF91CF913A
:101170001F910F91FF90EF90DF90CF90BF90AF90B5
:101180009F908F907F906F905F904F903F902F90A7
:1011900008955058BB27AA270ED00DC1FED030F0BD
:1011A00003D120F031F49F3F11F41EF4F3C00EF48C
:1011B000E095E7FBE9C0E92F0FD180F3BA1762078A
:1011C00073078407950718F071F49EF527C10EF494
:1011D000E0950B2EBA2FA02D0B01B90190010C0147
:1011E000CA01A0011124FF27591B99F0593F50F45F
:1011F000503E68F11A16F040A22F232F342F4427B7
:10120000585FF3CF469537952795A795F0405395AE
:10121000C9F77EF41F16BA0B620B730B840BBAF07E
:101220009150A1F0FF0FBB1F661F771F881FC2F7E9
:101230000EC0BA0F621F731F841F48F487957795FD
:101240006795B795F7959E3F08F0B3CF9395880FB4
:1012500008F09927EE0F97958795089571D008F4B7
:1012600081E0089504D06894B111D9C00895BCD02C
:1012700088F09F5790F0B92F9927B751A0F0D1F07F
:10128000660F771F881F991F1AF0BA95C9F712C009
:10129000B13081F0C3D0B1E00895C0C0672F782F7E
:1012A0008827B85F39F0B93FCCF386957795679575
:1012B000B395D9F73EF490958095709561957F4FE1
:1012C0008F4F9F4F0895E89409C097FB3EF4909587
:1012D0008095709561957F4F8F4F9F4F9923A9F00F
:1012E000F92F96E9BB279395F6958795779567959E
:1012F000B795F111F8CFFAF4BB0F11F460FF1BC0E2
:101300006F5F7F4F8F4F9F4F16C0882311F096E974
:1013100011C0772321F09EE8872F762F05C0662322
:1013200071F096E8862F70E060E02AF09A95660FDB
:10133000771F881FDAF7880F9695879597F9089594
:10134000990F0008550FAA0BE0E8FEEF16161706D6
:10135000E807F907C0F012161306E407F50798F03E
:10136000621B730B840B950B39F40A2661F0232B57
:10137000242B252B21F408950A2609F4A140A695D3
:101380008FEF811D811D089597F99F6780E870E0B8
:1013900060E008959FEF80EC089500240A941616EB
:1013A000170618060906089500240A941216130653
:1013B000140605060895092E0394000C11F48823E1
:1013C00052F0BB0F40F4BF2B11F460FF04C06F5FFD
:1013D0007F4F8F4F9F4F089557FD9058440F551FD3
:1013E00059F05F3F71F04795880F97FB991F61F0A7
:1013F0009F3F79F087950895121613061406551F1E
:10140000F2CF4695F1DF08C0161617061806991F89
:10141000F1CF86957105610508940895E894BB277E
:1014200066277727CB0197F908958ADF08F48FEFB5
:1014300008950BD0C0CFB1DF28F0B6DF18F09523A8
:1014400009F0A2CFA7CF1124EACFC6DFA0F3959F62
:10145000D1F3950F50E0551F629FF001729FBB279B
:10146000F00DB11D639FAA27F00DB11DAA1F649F47
:101470006627B00DA11D661F829F2227B00DA11DFA
:10148000621F739FB00DA11D621F839FA00D611D80
:10149000221F749F3327A00D611D231F849F600DA1
:1014A000211D822F762F6A2F11249F5750408AF0DA
:1014B000E1F088234AF0EE0FFF1FBB1F661F771F66
:1014C000881F91505040A9F79E3F510570F05CCFA6
:1014D000A6CF5F3FECF3983EDCF386957795679552
:1014E000B795F795E7959F5FC1F7FE2B880F911D84
:1014F0009695879597F90895A1E21A2EAA1BBB1B12
:10150000FD010DC0AA1FBB1FEE1FFF1FA217B307CF
:10151000E407F50720F0A21BB30BE40BF50B661FE5
:10152000771F881F991F1A9469F7609570958095A9
:1015300090959B01AC01BD01CF010895E7D0B7FFA5
:101540000895821B930B0895B7FFEFC0EED0821B66
:10155000930B0895689401C0E894F92FF12B0AF0D9
:1015600027C0A0E0B0E0E6EBFAE093C0092E0594B6
:101570001AF479D0112392F4F0E80F26FFEFE094EB
:10158000F09400951095B094C094D094A194BF0AA3
:10159000CF0ADF0AEF0AFF0A0F0B1F0B13D007FC5D
:1015A00062D0CDB7DEB7ECE090C0689401C0E8949B
:1015B0008F929F92CF93DF9305D0DF91CF919F9031
:1015C0008F90089588249924F401E401B0E49F9356
:1015D000AA279A158B049C04ED05FE05CF05D007BC
:1015E000A10798F4AD2FDC2FCF2FFE2FE92D982CDB
:1015F000892E982F872F762F652F542F432F322F28
:101600002227B85031F7BF9127C01B2EBF91BB27AF
:10161000220F331F441F551F661F771F881F991FF6
:10162000881C991CEE1FFF1FCC1FDD1FAA1FBB1FAC
:101630008A149B04EC05FD05CE05DF05A007B10764
:1016400048F08A189B08EC09FD09CE09DF09A00BB8
:10165000B10B21601A94E1F62EF49401AF01BE01A2
:10166000CD01000C0895609570958095909530950A
:101670004095509521953F4F4F4F5F4F6F4F7F4F94
:101680008F4F9F4F08952F923F924F925F926F928C
:101690007F928F929F92AF92BF92CF92DF92EF9202
:1016A000FF920F931F93CF93DF93CDB7DEB7CA1B83
:1016B000DB0B0FB6F894DEBF0FBECDBF19942A889E
:1016C000398848885F846E847D848C849B84AA8456
:1016D000B984C884DF80EE80FD800C811B81AA81E3
:1016E000B981CE0FD11D0FB6F894DEBF0FBECDBFAE
:1016F000ED0108950024A7FD00942A173005400548
:10170000500560057005800590050895A29FB00101
:10171000B39FC001A39F700D811D1124911DB29F25
:10172000700D811D1124911D0895F0DFA59F900D6E
:10173000B49F900DA49F800D911D11240895F894DD
:02174000FFCFD9
:061742000A002D002E003C
:00000001FF
