:1000000071C000008FC000008DC00000B1C10000B1
:100010001CC200007EC20000E0C2000083C00000DD
:1000200081C000007FC000007DC000007BC00000D8
:1000300079C0000077C0000075C0000073C00000E8
:1000400071C000006FC000006DC000006BC00000F8
:1000500069C0000067C0000065C0000063C0000008
:1000600061C000005FC000005DC000005BC0000018
:1000700059C0000057C0000055C0000053C0000028
:1000800051C000004FC000004DC000004BC0000038
:1000900049C0000047C0000045C00000D8C00000B3
:1000A00041C000003FC00000BCC700003BC00000D2
:1000B00039C0000037C0000035C0000033C0000068
:1000C00031C000002FC000002DC000002BC0000078
:1000D00029C0000027C0000025C0000023C0000088
:1000E00021C0000011241FBECFEFD1E2DEBFCDBF83
:1000F00000E00CBF12E0A0E0B2E0E2E5F8E100E0D1
:100100000BBF02C007900D92AC30B107D9F722E0C7
:10011000ACE0B2E001C01D92A03BB207E1F7FED017
:100120000C94270C6DCF8330910531F134F481307C
:10013000910561F0029789F02FC08632910549F14F
:100140008732910519F1049739F51DC00E944A09BB
:1001500082E090E00C9488090895C7D781E090E090
:100160000E9488092FEF89E698E121508040904055
:10017000E1F700C0000008950E944A0983E090E082
:100180000C94880908950C944A0908950C940F0959
:1001900008950C94D40808950C944A09089580E4B5
:1001A00080937C0010927B0086E880937A0008950B
:1001B000C697C1F584E092E00E94100A96D72FEF0F
:1001C00033EC49E0215030404040E1F700C00000EE
:1001D0000E944A098FEF99E628E181509040204023
:1001E000E1F700C000000E94DE0980E090E017C047
:1001F0002EEF21BB3FEF48EF25E13150404020403A
:10020000E1F700C0000021E021BB3FEF48EF25E10E
:10021000315040402040E1F700C000000196853099
:10022000910534F3089590930F0280930E0270931A
:100230000D0260930C020895F894880F8093BA0021
:1002400085EC8093BC0078940C94EE0908951F927D
:100250000F920FB60F9211240BB60F922F933F936C
:100260004F935F936F937F938F939F93AF93BF93BE
:10027000EF93FF938091B900887F803849F018F49C
:10028000882319F128C0883A71F0883BA9F023C06F
:100290008091BB00E0910E02F0910F02199585EC60
:1002A0008093BC001BC0E0910C02F0910D021995E7
:1002B00085EC8093BC0012C0E0910C02F0910D021D
:1002C000199585EC8093BC0009C0ECEBF0E010823E
:1002D00085EC808303C085EC8093BC00FF91EF9197
:1002E000BF91AF919F918F917F916F915F914F914E
:1002F0003F912F910F900BBE0F900FBE0F901F904C
:10030000189590E0909311028093100208958091C7
:100310001002909111028093BB0008950E94EE0993
:1003200080E18ADF67E871E081E891E07CDF37DF18
:1003300086E990E00E94D9092FEF8BE792E92150DE
:1003400080409040E1F700C00000B6D698D68FEF0D
:1003500080BBCBD681E090E0DBD7809110029091FA
:100360001102E1DE809110029091110221DFF5CFA0
:100370001F920F920FB60F9211240BB60F922F936C
:100380003F934F935F936F937F938F939F93AF931D
:10039000BF93EF93FF938091240190912501909357
:1003A000230280932202A0912202B0912302809125
:1003B000200290912102A81BB90B20E432E44FE007
:1003C00050E00E94080C24E234EF40E050E00E942C
:1003D000E00B3093970220939602A0919602B09181
:1003E00097022EED33E00E94020C9B01AC0160E00D
:1003F0007AEC8AE99BE30E94E00B3093A5022093FC
:10040000A402809122029091230290932102809372
:100410002002809112029091130201969093130290
:1004200080931202FF91EF91BF91AF919F918F91B5
:100430007F916F915F914F913F912F910F900BBEE4
:100440000F900FBE0F901F9018951F920F920FB62E
:100450000F9211240BB60F922F933F934F935F93FC
:100460006F937F938F939F93AF93BF93EF93FF937C
:10047000809124019091250190931F0280931E0288
:10048000A0911E02B0911F0280911C0290911D024A
:10049000A81BB90B20E432E44FE050E00E94080CA6
:1004A00024E234EF40E050E00E94E00B3093AD02D4
:1004B0002093AC02A091AC02B091AD022CE632E0E8
:1004C0000E94020C9B01AC0160E07AEC8AE99BE39C
:1004D0000E94E00B309391022093900280911E02C3
:1004E00090911F0290931D0280931C02FF91EF9147
:1004F000BF91AF919F918F917F916F915F914F913C
:100500003F912F910F900BBE0F900FBE0F901F9039
:1005100018951F920F920FB60F9211240BB60F92DF
:100520002F933F934F935F936F937F938F939F93FB
:10053000AF93BF93EF93FF93809124019091250196
:1005400090931B0280931A02A0911A02B0911B0291
:100550008091180290911902A81BB90B20E432E493
:100560004FE050E00E94080C24E234EF40E050E0FD
:100570000E94E00B30938D0220938C02A0918C029C
:10058000B0918D022EED33E00E94020C9B01AC0174
:1005900060E07AEC8AE99BE30E94E00B3093AB02C7
:1005A0002093AA0280911A0290911B029093190243
:1005B00080931802FF91EF91BF91AF919F918F911E
:1005C0007F916F915F914F913F912F910F900BBE53
:1005D0000F900FBE0F901F9018951F920F920FB69D
:1005E0000F9211240BB60F922F933F934F935F936B
:1005F0006F937F938F939F93AF93BF93EF93FF93EB
:100600008091240190912501909317028093160206
:10061000A0911602B09117028091140290911502D8
:10062000A81BB90B20E432E44FE050E00E94080C14
:1006300024E234EF40E050E00E94E00B3093A70248
:100640002093A602A091A602B091A7022EED33E05E
:100650000E94020C9B01AC0160E07AEC8AE99BE30A
:100660000E94E00B3093A1022093A0028091160219
:10067000909117029093150280931402FF91EF91CD
:10068000BF91AF919F918F917F916F915F914F91AA
:100690003F912F910F900BBE0F900FBE0F901F90A8
:1006A00018958BEA8093800080EE84B9089583E8E2
:1006B0008093900088E08DB908958CE0809381004C
:1006C00008958CE080939100089590938900809321
:1006D0008800089590938B0080938A0008959093EA
:1006E0008D0080938C0008959093990080939800DA
:1006F0000895CF92DF92EF92FF92C0900002D090C7
:100700000102E0900202F09003026091A402709155
:10071000A502072E000C880B990B3BD79B01AC015F
:10072000C701B6019AD660938002709381028093CC
:100730008202909383026091800270918102809185
:1007400082029091830223EC35EF48E850E4D5D73C
:1007500060937C0270937D0280937E0290937F026F
:100760006091800270918102809182029091830257
:1007700027EE3BEF49EE5EE3C0D720917002309147
:100780007102409172025091730268D660937802B0
:100790007093790280937A0290937B026091800239
:1007A00070918102809182029091830220919C023B
:1007B00030919D0240919E0250919F024ED620E0C2
:1007C00030E0A9019AD76093740270937502809308
:1007D000760290937702609178027091790280910D
:1007E0007A0290917B0220E030EC4FE754E481D70D
:1007F000181664F480E090ECAFE7B4E480937802DC
:1008000090937902A0937A02B0937B026091780270
:100810007091790280917A0290917B0220E030E021
:10082000A90180D6882344F41092780210927902AC
:1008300010927A0210927B02809178029091790254
:10084000A0917A02B0917B02809370029093710222
:10085000A0937202B0937302809180029091810202
:10086000A0918202B091830280939C0290939D029A
:10087000A0939E02B0939F0260917C0270917D02D2
:1008800080917E0290917F022091780230917902CE
:1008900040917A0250917B02E1D52091740230910F
:1008A00075024091760250917702D8D560936C0220
:1008B00070936D0280936E0290936F0260916C0250
:1008C00070916D0280916E0290916F0220E030E095
:1008D000A90128D6882344F410926C0210926D026C
:1008E00010926E0210926F0260916C0270916D0214
:1008F00080916E0290916F0220E030EC4FE754E45B
:10090000F8D6181664F480E090ECAFE7B4E4809376
:100910006C0290936D02A0936E02B0936F0260918F
:100920006C0270916D0280916E0290916F02FED503
:10093000CB01CBDEFF90EF90DF90CF900895CF9268
:10094000DF92EF92FF92C0900002D0900102E090FF
:100950000202F09003026091900270919102072EC2
:10096000000C880B990B15D69B01AC01C701B60191
:1009700074D5609368027093690280936A029093C1
:100980006B02609168027091690280916A02909195
:100990006B0223EC35EF48E850E4AFD66093640275
:1009A000709365028093660290936702609168027B
:1009B0007091690280916A0290916B0227EE3BEF81
:1009C00049EE5EE39AD62091580230915902409147
:1009D0005A0250915B0242D56093600270936102AB
:1009E0008093620290936302609168027091690241
:1009F00080916A0290916B02209188023091890265
:100A000040918A0250918B0228D520E030E0A90164
:100A100074D660935C0270935D0280935E02909343
:100A20005F02609160027091610280916202909118
:100A3000630220E030EC4FE754E45BD6181664F410
:100A400080E090ECAFE7B4E48093600290936102A1
:100A5000A0936202B09363026091600270916102A0
:100A6000809162029091630220E030E0A9015AD5A2
:100A7000882344F410926002109261021092620284
:100A8000109263028091600290916102A0916202D3
:100A9000B09163028093580290935902A0935A0236
:100AA000B0935B028091680290916902A0916A0202
:100AB000B0916B028093880290938902A0938A027E
:100AC000B0938B026091640270916502809166021E
:100AD0009091670220916002309161024091620220
:100AE00050916302BBD420915C0230915D02409131
:100AF0005E0250915F02B2D460935402709355022B
:100B0000809356029093570260915402709155025F
:100B1000809156029091570220E030E0A90102D561
:100B2000882344F4109254021092550210925602F7
:100B300010925702609154027091550280915602B2
:100B40009091570220E030EC4FE754E4D2D51816CC
:100B500064F480E090ECAFE7B4E4809354029093A7
:100B60005502A0935602B0935702609154027091BF
:100B700055028091560290915702D8D4CB01AADD3C
:100B8000FF90EF90DF90CF900895CF92DF92EF9299
:100B9000FF92C0900002D0900102E0900202F0901B
:100BA00003026091AA027091AB02072E000C880B21
:100BB000990BEFD49B01AC01C701B6014ED46093F1
:100BC00050027093510280935202909353026091AD
:100BD000500270915102809152029091530223EC85
:100BE00035EF48E850E489D560934C0270934D028C
:100BF00080934E0290934F02609150027091510287
:100C0000809152029091530227EE3BEF49EE5EE352
:100C100074D520914002309141024091420250919E
:100C200043021CD4609348027093490280934A02A5
:100C300090934B0260915002709151028091520248
:100C400090915302209198023091990240919A021A
:100C500050919B0202D420E030E0A9014ED5609370
:100C6000440270934502809346029093470260913C
:100C700048027091490280914A0290914B0220E013
:100C800030EC4FE754E435D5181664F480E090EC6E
:100C9000AFE7B4E48093480290934902A0934A02DC
:100CA000B0934B02609148027091490280914A02D0
:100CB00090914B0220E030E0A90134D4882344F421
:100CC000109248021092490210924A0210924B026E
:100CD0008091480290914902A0914A02B0914B0242
:100CE0008093400290934102A0934202B09343024A
:100CF0008091500290915102A0915202B091530202
:100D00008093980290939902A0939A02B0939B02C9
:100D100060914C0270914D0280914E0290914F0271
:100D2000209148023091490240914A0250914B0271
:100D300095D3209144023091450240914602509152
:100D400047028CD360933C0270933D0280933E0235
:100D500090933F0260913C0270913D0280913E026F
:100D600090913F0220E030E0A901DCD3882344F4D5
:100D700010923C0210923D0210923E0210923F02ED
:100D800060913C0270913D0280913E0290913F0241
:100D900020E030EC4FE754E4ACD4181664F480E063
:100DA00090ECAFE7B4E480933C0290933D02A093B3
:100DB0003E02B0933F0260913C0270913D028091EF
:100DC0003E0290913F02B2D3CB0189DCFF90EF90BD
:100DD000DF90CF900895CF92DF92EF92FF92C09074
:100DE0000002D0900102E0900202F09003026091B4
:100DF000A0027091A102072E000C880B990BC9D399
:100E00009B01AC01C701B60128D3609338027093EF
:100E1000390280933A0290933B02609138027091BC
:100E2000390280913A0290913B0223EC35EF48E879
:100E300050E463D460933402709335028093360299
:100E400090933702609138027091390280913A0292
:100E500090913B0227EE3BEF49EE5EE34ED42091AA
:100E600028023091290240912A0250912B02F6D299
:100E70006093300270933102809332029093330278
:100E8000609138027091390280913A0290913B0250
:100E900020919202309193024091940250919502D8
:100EA000DCD220E030E0A90128D460932C027093BA
:100EB0002D0280932E0290932F0260913002709148
:100EC0003102809132029091330220E030EC4FE702
:100ED00054E40FD4181664F480E090ECAFE7B4E467
:100EE0008093300290933102A0933202B093330288
:100EF0006091300270913102809132029091330200
:100F000020E030E0A9010ED3882344F4109230028F
:100F1000109231021092320210923302809130020C
:100F200090913102A0913202B09133028093280255
:100F300090932902A0932A02B0932B028091380249
:100F400090913902A0913A02B0913B0280939202B3
:100F500090939302A0939402B0939502609134020F
:100F600070913502809136029091370220913002C3
:100F70003091310240913202509133026FD2209170
:100F80002C0230912D0240912E0250912F0266D2F8
:100F90006093240270932502809326029093270287
:100FA000609124027091250280912602909127027F
:100FB00020E030E0A901B6D2882344F41092240244
:100FC00010922502109226021092270260912402AC
:100FD00070912502809126029091270220E030EC4A
:100FE0004FE754E486D3181664F480E090ECAFE742
:100FF000B4E48093240290932502A0932602B09338
:10100000270260912402709125028091260290911E
:1010100027028CD2CB0168DBFF90EF90DF90CF905E
:1010200008951F920F920FB60F9211240BB60F92D4
:101030002F933F934F935F936F937F938F939F93E0
:10104000AF93BF93EF93FF9354DB79DC9EDDC3DE58
:101050001092A5001092A400FF91EF91BF91AF9163
:101060009F918F917F916F915F914F913F912F91C0
:101070000F900BBE0F900FBE0F901F9018951092FF
:10108000200184E08093210180E1809301018FEFB2
:1010900081B981E080BB05DB0ADB0FDB12DB84EF6B
:1010A00091E013DB84EF91E015DB84EF91E017DB37
:1010B00084EF91E019CB089583E28093A0008CE047
:1010C0008093A10082E0809372008DE790E090937E
:1010D000A9008093A80080EF809369008FE080933F
:1010E0006A008CE38DBB7894089580E090E0AAE7D5
:1010F000B4E48093000290930102A0930202B093A3
:10110000030286E682B984EF91E0EEDA2FEF87E8FA
:1011100093E1215080409040E1F700C0000084EF4F
:1011200091E0D3DA84EF91E0D5DA84EF91E0D7CA89
:10113000089580E090E0AAE7B4E4809300029093E1
:101140000102A0930202B093030289E982B960917F
:101150000002709101028091020290910302E6D197
:10116000CB01B3DA6091000270910102809102021A
:1011700090910302DBD1CB01ADDA60910002709156
:1011800001028091020290910302D0D1CB01A7DA33
:10119000609100027091010280910202909103021D
:1011A000C5D1CB01A1CA089580E090E0A8ECB3E4DA
:1011B0008093000290930102A0930202B093030275
:1011C00085E582B96091000270910102809102026E
:1011D00090910302ABD1CB0178DA6091000270915B
:1011E00001028091020290910302A0D1CB0172DA38
:1011F00060910002709101028091020290910302BD
:1012000095D1CB016CDA609100027091010280915E
:101210000202909103028AD1CB0166CA089580E050
:1012200090E0A8ECB3E48093000290930102A093B5
:101230000202B09303028AEA82B9609100027091BF
:101240000102809102029091030270D1CB013DDA3C
:10125000609100027091010280910202909103025C
:1012600065D1CB0137DA6091000270910102809163
:101270000202909103025AD1CB0131DA609100024F
:101280007091010280910202909103024FD1CB0133
:101290002BCA0895109200021092010210920202CD
:1012A000109203026091000270910102809102028B
:1012B000909103023BD1CB010DDA60910002709155
:1012C0000102809102029091030230D1CB0107DA32
:1012D0002FEF84E39CE0215080409040E1F700C074
:1012E00000006091000270910102809102029091D1
:1012F00003021CD1CB01E9D9609100027091010277
:10130000809102029091030211D1CB01EDC90895A1
:1013100081309105E9F480911202909113028E3C84
:101320009440C9F706DF8FE59AEE0197F1F700C008
:101330000000B0DF9FEF25EA8EE091502040804012
:10134000E1F700C0000010921302109212020895FB
:1013500082309105B1F428DF8FE79BEB0197F1F71D
:1013600000C0000097DF9FEF25EA8EE091502040FB
:101370008040E1F700C000001092130210921202A8
:1013800008950397A9F44BDF8FE79BEB0197F1F7E3
:1013900000C000007FDF9FEF25EA8EE091502040E3
:1013A0008040E1F700C00000109213021092120278
:1013B00008959093AB008093AA0008958DE790E084
:1013C000F8DF2FEF8DE399E4215080409040E1F762
:1013D00000C0000086E990E0ECCF0895809184027F
:1013E00090918502A0918602B0918702892F9A2F51
:1013F000AB2FBB27A7FDBA958093C50080918402CF
:101400008093C40088E98093C10086E08093C20085
:1014100008959091C00095FFFCCF8093C600089579
:101420000F931F93CF93DF938C01C0E0D0E006C0F1
:10143000F801EC0FFD1F8081ECDF2196F80101908F
:101440000020E9F73197E01BF10BCE17DF0780F39F
:10145000DF91CF911F910F9108955058BB27AA2774
:101460000ED00DC1FED030F003D120F031F49F3FFB
:1014700011F41EF4F3C00EF4E095E7FBE9C0E92F88
:101480000FD180F3BA17620773078407950718F026
:1014900071F49EF527C10EF4E0950B2EBA2FA02D06
:1014A0000B01B90190010C01CA01A0011124FF2711
:1014B000591B99F0593F50F4503E68F11A16F0400C
:1014C000A22F232F342F4427585FF3CF469537950B
:1014D0002795A795F0405395C9F77EF41F16BA0BD0
:1014E000620B730B840BBAF09150A1F0FF0FBB1F7E
:1014F000661F771F881FC2F70EC0BA0F621F731FC7
:10150000841F48F4879577956795B795F7959E3F23
:1015100008F0B3CF9395880F08F09927EE0F9795B1
:101520008795089571D008F481E0089504D06894F7
:10153000B111D9C00895BCD088F09F5790F0B92F51
:101540009927B751A0F0D1F0660F771F881F991F18
:101550001AF0BA95C9F712C0B13081F0C3D0B1E02A
:101560000895C0C0672F782F8827B85F39F0B93F3A
:10157000CCF3869577956795B395D9F73EF490951A
:101580008095709561957F4F8F4F9F4F0895E89498
:1015900009C097FB3EF490958095709561957F4FBB
:1015A0008F4F9F4F9923A9F0F92F96E9BB27939569
:1015B000F695879577956795B795F111F8CFFAF479
:1015C000BB0F11F460FF1BC06F5F7F4F8F4F9F4FAA
:1015D00016C0882311F096E911C0772321F09EE808
:1015E000872F762F05C0662371F096E8862F70E06E
:1015F00060E02AF09A95660F771F881FDAF7880F48
:101600009695879597F90895990F0008550FAA0B9D
:10161000E0E8FEEF16161706E807F907C0F0121605
:101620001306E407F50798F0621B730B840B950B08
:1016300039F40A2661F0232B242B252B21F408955D
:101640000A2609F4A140A6958FEF811D811D0895FA
:1016500097F99F6780E870E060E008959FEF80EC65
:10166000089500240A941616170618060906089508
:1016700000240A9412161306140605060895092E6E
:101680000394000C11F4882352F0BB0F40F4BF2BDD
:1016900011F460FF04C06F5F7F4F8F4F9F4F08951D
:1016A00057FD9058440F551F59F05F3F71F0479513
:1016B000880F97FB991F61F09F3F79F087950895F8
:1016C000121613061406551FF2CF4695F1DF08C017
:1016D000161617061806991FF1CF86957105610534
:1016E00008940895E894BB2766277727CB0197F9DC
:1016F00008958ADF08F48FEF08950BD0C0CFB1DFD3
:1017000028F0B6DF18F0952309F0A2CFA7CF112457
:10171000EACFC6DFA0F3959FD1F3950F50E0551F98
:10172000629FF001729FBB27F00DB11D639FAA2736
:10173000F00DB11DAA1F649F6627B00DA11D661F85
:10174000829F2227B00DA11D621F739FB00DA11DA6
:10175000621F839FA00D611D221F749F3327A00D60
:10176000611D231F849F600D211D822F762F6A2FFC
:1017700011249F5750408AF0E1F088234AF0EE0F81
:10178000FF1FBB1F661F771F881F91505040A9F78E
:101790009E3F510570F05CCFA6CF5F3FECF3983EC3
:1017A000DCF3869577956795B795F795E7959F5FF5
:1017B000C1F7FE2B880F911D9695879597F908958F
:1017C000A1E21A2EAA1BBB1BFD010DC0AA1FBB1F45
:1017D000EE1FFF1FA217B307E407F50720F0A21BB7
:1017E000B30BE40BF50B661F771F881F991F1A9424
:1017F00069F760957095809590959B01AC01BD014E
:10180000CF0108950BD0B7FF0895821B930B089565
:10181000B7FF13C012D0821B930B0895A29FB00193
:10182000B39FC001A39F700D811D1124911DB29F14
:10183000700D811D1124911D0895F0DFA59F900D5D
:10184000B49F900DA49F800D911D11240895F894CC
:02185000FFCFC8
:0C1852000000FA4363726F63650A000037
:00000001FF
